01000000160014E200000012012011801001                                                                                                                                                                                                                                                                                                                                                                                                                                                              
020000002600120120119014000000000000000001000131931960630580201201180100000000065503028892TRIBUNAL SUPERIOR DE JUSTICIA DEL DF    PEPJ700101HDF5D4570000000000000000000000JUAN GREGORIO ESCALERAS DIAZ            ESDJ700101HDF11111                                                                                0000000000000000000000JUAN GREGORIO ESCALERAS DIAZ            06123456789                   0020120118C9999EA001  000000000000000000000001245789PAGO DE PRUEBA 1              
020000003600120120120014000000000000000001000131931960630680201201180100000000065503028892TRIBUNAL SUPERIOR DE JUSTICIA DEL DF    PEPJ700101HDF5D4570000000000000000000000ELIZABETH SARA MEDINALOPEZ              SAME700101MDF11111                                                                                0000000000000000000000ELIZABETH SARA MEDINALOPEZ              06987654321                   0020120118C9999EA002  000000000000000000000009874562PAGO DE PRUEBA 2              
020000004600120120120014000000000000000001000131931960630780201201180100000000065503028892TRIBUNAL SUPERIOR DE JUSTICIA DEL DF    PEPJ700101HDF5D4570000000000000000000000MARIA DE LA LUZ RAMIREZ NAVA            RANM700101MDF11111                                                                                0000000000000000000000MARIA DE LA LUZ RAMIREZ NAVA            06963852741                   0020120118C9999EA002  000000000000000000000002455689PAGO DE PRUEBA 3              
020000005600120120120014000000000000000001000131931960630880201201180100000000065503028892TRIBUNAL SUPERIOR DE JUSTICIA DEL DF    PEPJ700101HDF5D4570000000000000000000000JUAN ELKE NOIRA                         ELNJ700101HDF11111                                                                                0000000000000000000000JUAN ELKE NOIRA                         06369258147                   0020120118C9999EA002  000000000000000000000001235689PAGO DE PRUEBA 4              
0900000066000000010000004000000000000000004                                                                                                                                                                                                                                                                                                                                                                                                                                                       
