01000000160014E200000012012012601001                                                                                                                                                                                                                                                                                                                                                                                                                                                              
020000002600120120127014000000000000000001000131931960000080201201260100000000065503028892TRIBUNAL SUPERIOR DE JUSTICIA DEL DF    PEPJ700101HDF5D4570000000000000000000000JUAN GREGORIO ESCALERAS DIAZ            ESDJ700101HDF11111                                                                                0000000000000001000000JUAN GREGORIO ESCALERAS DIAZ            06123456789                   0020120126C9999EA001  000000000000000000000000100000PAGO DE PRUEBA 1              
020000003600120120202014000000000000000001000131931960000180201201260100000000065503028892TRIBUNAL SUPERIOR DE JUSTICIA DEL DF    PEPJ700101HDF5D4570000000000000000000000ELIZABETH SARA MEDINALOPEZ              SAME700101MDF11111                                                                                0000000000000001000010ELIZABETH SARA MEDINALOPEZ              06987654321                   0020120126C9999EA007  000000000000000000000000100001PAGO DE PRUEBA 2              
020000004600120120202014000000000000000001000131931960000280201201260100000000065503028892TRIBUNAL SUPERIOR DE JUSTICIA DEL DF    PEPJ700101HDF5D4570000000000000000000000MARIA DE LA LUZ RAMIREZ NAVA            RANM700101MDF11111                                                                                0000000000000001000020MARIA DE LA LUZ RAMIREZ NAVA            06963852741                   0020120126C9999EA007  000000000000000000000000100002PAGO DE PRUEBA 3              
020000005600120120202014000000000000000001000131931960000380201201260100000000065503028892TRIBUNAL SUPERIOR DE JUSTICIA DEL DF    PEPJ700101HDF5D4570000000000000000000000JUAN ELKE NOIRA                         ELNJ700101HDF11111                                                                                0000000000000001000030JUAN ELKE NOIRA                         06369258147                   0020120126C9999EA007  000000000000000000000000100003PAGO DE PRUEBA 4              
0900000066000000010000004000000000000000004                                                                                                                                                                                                                                                                                                                                                                                                                                                       
