01000000160014E200000012011121301001                                                                                                                                                                                                                                                                                                                                                                                                                                                              
020000002600120111109014000000000000071386000131923796818780201110300100000000000000000000JOSE HURTADO AGUILAR Y RICARDO DIAZ TRUJMHCY98708736      0000000000000000000000GONZALEZ CASAS ESPERANZA                BSKK18521289                                                                                      0000000000000000000000GONZALEZ CASAS ESPERANZA                0313080010199987894861        0020111030C9999EA010  000000000000000000000004821685CONCEPTO DE PAGO              
020000003600120111015014000000000000004549000131923829212580201110050100000000000003078943FERNANDEZ MARTINEZ MARCO ANTO           PQHU88570974      0000000000000000000000ZARATE VILLA ROCIO                      NLJG83487828                                                                                      0000000000000000000000ZARATE VILLA ROCIO                      0275624058759796120251        0020111005C9999EA010  000000000000000000000002584970CONCEPTO DE PAGO              
020000004600120111110014000000000000025629000131923840178180201110310100000000000001274960JUAN RAMON CEDENO                       PTWZ01961772      0000000000000000000000AUTOFINANCIAMIENTO MEXICO SA            JHJO40176015                                                                                      0000000000000000000000AUTOFINANCIAMIENTO MEXICO SA            0464989678292577016246        0020111031C9999EA010  000000000000000000000000743418CONCEPTO DE PAGO              
020000005600120110917014000000000000047977000131923840226080201109070100000000000002783465BANCO JP MORGAN SA INSTITUT             UVLV75677658      0000000000000000000000INSTITUTO DEL FONDO NACIONAL D          QFGJ32804672                                                                                      0000000000000000000000INSTITUTO DEL FONDO NACIONAL D          0516477824102224128728        0020110907C9999EA010  000000000000000000000009043675CONCEPTO DE PAGO              
020000006600120111109014000000000000008776000131923840231680201110300100000000000004754825OSORNIO BARAJAS LUIS CESAR              CLVH26098621      0000000000000000000000BANCO INVERLAT SA IBM                   DDDW29874558                                                                                      0000000000000000000000BANCO INVERLAT SA IBM                   0690339865866429884325        0020111030C9999EA010  000000000000000000000000703749CONCEPTO DE PAGO              
020000007600120110928014000000000000042847000131923840237680201109180100000000000009050122C DIRECTOR DEL REGISTRO CIVIL           MFDV36069380      0000000000000000000000CRUZ JORDAN MARIA DEL ROSARIO           SLXQ32755953                                                                                      0000000000000000000000CRUZ JORDAN MARIA DEL ROSARIO           0607273287162138861304        0020110918C9999EA010  000000000000000000000006037994CONCEPTO DE PAGO              
020000008600120110921014000000000000092230000131923840241680201109110100000000000005136105INSTITUTO DEL FONDO NACIONAL D          MZQN51939136      0000000000000000000000PROMOTORES INDEPENDIENTESDE MA          NIKO99279430                                                                                      0000000000000000000000PROMOTORES INDEPENDIENTESDE MA          0101291833601508932742        0020110911C9999EA010  000000000000000000000009095855CONCEPTO DE PAGO              
020000009600120111012014000000000000083302000131923840246880201110020100000000000009762531ZUNIGA HERRERA NELLY LAURA              ANYP09494660      0000000000000000000000BANCO SANTANDER MEXICANO SA             MZQI06991264                                                                                      0000000000000000000000BANCO SANTANDER MEXICANO SA             0389460644992715207612        0020111002C9999EA010  000000000000000000000002734491CONCEPTO DE PAGO              
020000010600120111007014000000000000088429000131923840257480201109270100000000000007330130LEK LAVAT PICCO                         VERX61023543      0000000000000000000000INSTITUTO DEL FONDO NACIONAL D          JFYK20422168                                                                                      0000000000000000000000INSTITUTO DEL FONDO NACIONAL D          0610544244578894840581        0020110927C9999EA010  000000000000000000000003382925CONCEPTO DE PAGO              
020000011600120111101014000000000000039016000131923840262680201110220100000000000009986707MARTINEZ MARTINEZ ENRIQUETA             CLOJ92914998      0000000000000000000000ADRIAN ALVAREZ                          KBYX69266143                                                                                      0000000000000000000000ADRIAN ALVAREZ                          0333569436773126740200        0020111022C9999EA010  000000000000000000000006749593CONCEPTO DE PAGO              
0900000126000000010000011000000000000504141                                                                                                                                                                                                                                                                                                                                                                                                                                                       
