01000000160014E200000012012012701001                                                                                                                                                                                                                                                                                                                                                                                                                                                              
020000002600120120128014000000000000000001000131931960000480201201270100000000065503028892TRIBUNAL SUPERIOR DE JUSTICIA DEL DF    PEPJ700101HDF5D4570000000000000000000000JUAN GREGORIO ESCALERAS DIAZ            ESDJ700101HDF11111                                                                                0000000000000001000040JUAN GREGORIO ESCALERAS DIAZ            06123456789                   0020120127C9999EA001  000000000000000000000000100004PAGO DE PRUEBA 1              
020000003600120120203014000000000000000001000131931960000580201201270100000000065503028892TRIBUNAL SUPERIOR DE JUSTICIA DEL DF    PEPJ700101HDF5D4570000000000000000000000ELIZABETH SARA MEDINALOPEZ              SAME700101MDF11111                                                                                0000000000000001000050ELIZABETH SARA MEDINALOPEZ              06987654321                   0020120127C9999EA007  000000000000000000000000100005PAGO DE PRUEBA 2              
020000004600120120203014000000000000000001000131931960000680201201270100000000065503028892TRIBUNAL SUPERIOR DE JUSTICIA DEL DF    PEPJ700101HDF5D4570000000000000000000000MARIA DE LA LUZ RAMIREZ NAVA            RANM700101MDF11111                                                                                0000000000000001000060MARIA DE LA LUZ RAMIREZ NAVA            06963852741                   0020120127C9999EA007  000000000000000000000000100006PAGO DE PRUEBA 3              
020000005600120120203014000000000000000001000131931960000780201201270100000000065503028892TRIBUNAL SUPERIOR DE JUSTICIA DEL DF    PEPJ700101HDF5D4570000000000000000000000JUAN ELKE NOIRA                         ELNJ700101HDF11111                                                                                0000000000000001000070JUAN ELKE NOIRA                         06369258147                   0020120127C9999EA007  000000000000000000000000100007PAGO DE PRUEBA 4              
0900000066000000010000004000000000000000004                                                                                                                                                                                                                                                                                                                                                                                                                                                       
