01000000160014E200000012012010701001                                                                                                                                                                                                                                                                                                                                                                                                                                                              
020000002600120120110014000000000000000001000131931960630580201201060100000000065503028892JUAN PEREZ PRUEBA                       PEPJ700101HDF5D4570000000000121212121212JUAN GREGORIO ESCALERAS DIAZ            ESDJ700101HDF11111                                                                                0000000000000000000000JUAN GREGORIO ESCALERAS DIAZ            06123456789                   0020120106C9999EA004  000000000000000000000001245789PAGO DE PRUEBA 1              
020000003600120120110014000000000000000001000131931960630680201201060100000000065503028892JUAN PEREZ PRUEBA                       PEPJ700101HDF5D4570000000000131313131313ELIZABETH SARA MEDINALOPEZ              SAME700101MDF11111                                                                                0000000000000000000000ELIZABETH SARA MEDINALOPEZ              06987654321                   0020120106C9999EA004  000000000000000000000009874562PAGO DE PRUEBA 2              
020000004600120120110014000000000000000001000131931960630780201201060100000000065503028892JUAN PEREZ PRUEBA                       PEPJ700101HDF5D4570000000000141414141414MARIA DE LA LUZ RAMIREZ NAVA            RANM700101MDF11111                                                                                0000000000000000000000MARIA DE LA LUZ RAMIREZ NAVA            06963852741                   0020120106C9999EA004  000000000000000000000002455689PAGO DE PRUEBA 3              
020000005600120120110014000000000000000001000131931960630880201201060100000000065503028892JUAN PEREZ PRUEBA                       PEPJ700101HDF5D4570000000000151515151515JUAN ELKE NOIRA                         ELNJ700101HDF11111                                                                                0000000000000000000000JUAN ELKE NOIRA                         06369258147                   0020120106C9999EA004  000000000000000000000001235689PAGO DE PRUEBA 4              
0900000066000000010000005000000000000000004                                                                                                                                                                                                                                                                                                                                                                                                                                                       
